:100000000C942A000C9447000C9447000C94470071
:100010000C9447000C9447000C9447000C94470044
:100020000C9447000C9447000C9447000C94470034
:100030000C9447000C9447000C9447000C94470024
:100040000C9447000C9447000C9447000C94470014
:100050000C94470011241FBECFE5D4E0DEBFCDBF16
:1000600010E0A0E6B0E0EEEDF0E002C005900D92E9
:10007000A036B107D9F710E0A0E6B0E001C01D92AC
:10008000A036B107E1F70E9449000C946D000C9472
:1000900000001ABA8FEF84BB63E051E028EC30E037
:1000A00042E06BBB89B38370823041F455BB84EF6F
:1000B00091E0F9013197F1F70197D9F789B383708E
:1000C000813049F445BB84EF91E0F9013197F1F7B4
:0E00D0000197D9F7E6CF15BAE4CFF894FFCF29
:00000001FF
